Received: from uhura.unitymedia.de (ip-10-0-0-204.eu-central-1.compute.internal [10.0.0.204])
	by c3c9c9be5da4 (Haraka/2.8.16) with ESMTP id 034BCFC8-0C9D-4816-85F5-269012B102E7.1
	envelope-from <ddos-response@nfoservers.com>;
	Mon, 23 Oct 2017 05:16:54 +0000
Received: by uhura.unitymedia.de (Postfix, from userid 12347)
	id 2E5AECC0128; Mon, 23 Oct 2017 07:16:54 +0200 (CEST)
X-Spam-Checker-Version: SpamAssassin 3.3.1 (2010-03-16) on
	kerp-mta001.unity.media.corp
X-Spam-Level: 
X-Spam-Status: No, score=-104.3 required=5.0 tests=AWL,BAYES_00,
	J_CHICKENPOX_12,J_CHICKENPOX_21,RCVD_IN_DNSWL_NONE,SPF_PASS,
	USER_IN_WHITELIST_TO autolearn=no version=3.3.1
X-Spam-Virus: No
Received-SPF: pass (nfoservers.com: 208.146.45.251 is authorized to use 'ddos-response@nfoservers.com' in 'mfrom' identity (mechanism 'mx' matched)) receiver=kerp-mta001.unity.media.corp; identity=mailfrom; envelope-from="ddos-response@nfoservers.com"; helo=mail.nuclearfallout.net; client-ip=208.146.45.251
X-Originating-IP: 208.146.45.251
X-Originating-IP: 208.146.45.251
Received: from mail.nuclearfallout.net (mail.nuclearfallout.net [208.146.45.251])
	(using TLSv1 with cipher ADH-AES256-SHA (256/256 bits))
	(No client certificate requested)
	by uhura.unitymedia.de (Postfix) with ESMTPS id 0E1F6CC00E7
	for <abuse@umkbw.de>; Mon, 23 Oct 2017 07:16:11 +0200 (CEST)
Received: from www.nfoservers.com (www.nfoservers.com [208.146.44.1])
	(using TLSv1.2 with cipher ECDHE-RSA-AES256-GCM-SHA384 (256/256 bits))
	(No client certificate requested)
	by mail.nuclearfallout.net (Postfix) with ESMTPS id D39787168BD15
	for <abuse@umkbw.de>; Sun, 22 Oct 2017 22:17:44 -0700 (PDT)
Received: from www (localhost [127.0.0.1])
	by www.nfoservers.com (Postfix) with SMTP id A9C6D413CF0
	for <abuse@umkbw.de>; Sun, 22 Oct 2017 22:16:05 -0700 (PDT)
Mime-Version: 1.0
From: NFOservers.com DDoS notifier <ddos-response@nfoservers.com>
Content-Transfer-Encoding: quoted-printable
Date: Sun, 22 Oct 2017 22:16:05 -0700
Subject: Compromised host used for an attack: 95.208.172.200
To: abuse@umkbw.de
Content-Type: text/plain; charset="iso-8859-1"
Message-Id: <20171023051605.A9C6D413CF0@www.nfoservers.com>

An IP address (95.208.172.200) under your control appears to have attacked =
one of our customers as part of a coordinated DDoS botnet. We manually revi=
ewed the captures from this attack and do not believe that your IP address =
was spoofed, based on the limited number of distinct hosts attacking us, th=
e identicality of many attacking IP addresses to ones we've seen in the pas=
t, and the non-random distribution of IP addresses.=20
=20=20
It is likely that this host is one of the following, from the responses tha=
t others have sent us:

- A compromised DVR, such as a "Hikvision" brand device (ref: http://www.co=
resecurity.com/advisories/hikvision-ip-cameras-multiple-vulnerabilities)
- A compromised IPMI device, such as one made by Supermicro (possibly becau=
se it uses the default U/P of ADMIN/ADMIN or because its password was found=
 through an exploit described at http://arstechnica.com/security/2014/06/at=
-least-32000-servers-broadcast-admin-passwords-in-the-clear-advisory-warns/)
- A compromised router, such as one made by China Telecom which still allow=
s a default admin username and password; one by Netis, with its built-in in=
ternet-accessible backdoor (http://blog.trendmicro.com/trendlabs-security-i=
ntelligence/netis-routers-leave-wide-open-backdoor/); or one running an old=
 AirOS version with its exposed administrative interface
- A compromised Xerox-branded device
- Some other compromised standalone device
- A compromised webhost, such as one running a vulnerable version of WordPr=
ess, phpMyAdmin, or zPanel
- A compromised client, such as one running a vulnerable web browser suscep=
tible to a Java exploit
- A server with an insecure password that was brute-forced, such as through=
 SSH or RDP

The actual attack consisted of packets with specific distinguishing charact=
eristics. This is example traffic from the IP address, as put out by the "t=
cpdump" utility and captured by our router during the attack.

Date/timestamps (at the very left) are UTC.

2017-10-22 21:04:10.161427 IP (tos 0x0, ttl 53, id 12492, offset 0, flags [=
none], proto TCP (6), length 1064)
    95.208.172.200.42427 > 74.91.116.x.443: Flags [.], seq 329192453:329193=
477, ack 1240795441, win 54208, length 1024
	0x0000:  4500 0428 30cc 0000 3506 8539 5fd0 acc8  E..(0...5..9_...
	0x0010:  4a5b 74d7 a5bb 01bb 139f 1405 49f5 0931  J[t.........I..1
	0x0020:  5010 d3c0 7a94 0000 0849 ad93 b711 365c  P...z....I....6\
	0x0030:  5cc5 2387 bd98 15af f8f8 12ba c665 782f  \.#..........ex/
	0x0040:  b3c9 a27f ce81 ecc4 f6d4 5a6c 1b9d e099  ..........Zl....
	0x0050:  e5b9                                     ..
2017-10-22 21:04:10.254476 IP (tos 0x0, ttl 53, id 12174, offset 0, flags [=
none], proto TCP (6), length 1064)
    95.208.172.200.5934 > 74.91.116.x.443: Flags [.], seq 689396549:6893975=
73, ack 541910180, win 54208, length 1024
	0x0000:  4500 0428 2f8e 0000 3506 8677 5fd0 acc8  E..(/...5..w_...
	0x0010:  4a5b 74d7 172e 01bb 2917 5b45 204c e4a4  J[t.....).[E.L..
	0x0020:  5010 d3c0 7aed 0000 fd50 7e7c c5c7 a99f  P...z....P~|....
	0x0030:  5699 0f11 11b7 a8a2 6f6a 9776 9719 4055  V.......oj.v..@U
	0x0040:  0966 3420 a538 7f16 9ed2 9de0 c394 7d87  .f4..8........}.
	0x0050:  fb6b                                     .k
2017-10-22 21:04:10.313058 IP (tos 0x0, ttl 49, id 54387, offset 0, flags [=
none], proto TCP (6), length 1064)
    95.208.172.200.54432 > 74.91.116.x.443: Flags [.], seq 509696772:509697=
796, ack 712790088, win 54208, length 1024
	0x0000:  4500 0428 d473 0000 3106 e591 5fd0 acc8  E..(.s..1..._...
	0x0010:  4a5b 74d7 d4a0 01bb 1e61 5b04 2a7c 5048  J[t......a[.*|PH
	0x0020:  5010 d3c0 6429 0000 4c26 2538 7f4a a7c8  P...d)..L&%8.J..
	0x0030:  6be7 6a5e a3d1 897a dea3 77dd f4fd ff26  k.j^...z..w....&
	0x0040:  a418 ce7d 8bad 19dd 4e75 8aea 556a 48cd  ...}....Nu..UjH.
	0x0050:  3763                                     7c
2017-10-22 21:04:10.328054 IP (tos 0x0, ttl 49, id 31106, offset 0, flags [=
none], proto TCP (6), length 1064)
    95.208.172.200.31470 > 74.91.116.x.443: Flags [.], seq 3115149443:31151=
50467, ack 465511097, win 54208, length 1024
	0x0000:  4500 0428 7982 0000 3106 4083 5fd0 acc8  E..(y...1.@._...
	0x0010:  4a5b 74d7 7aee 01bb b9ad 6883 1bbf 22b9  J[t.z.....h...".
	0x0020:  5010 d3c0 37ae 0000 9b91 e625 d067 42b3  P...7......%.gB.
	0x0030:  025c c14c e014 8154 f4a0 f3bd 1e38 4540  .\.L...T.....8E@
	0x0040:  fa8a b16a bed0 914e 4d1e a032 91d0 fe94  ...j...NM..2....
	0x0050:  3e7e                                     >~
2017-10-22 21:04:09.814076 IP (tos 0x0, ttl 50, id 28440, offset 0, flags [=
none], proto TCP (6), length 1064)
    95.208.172.200.58302 > 74.91.116.x.443: Flags [.], seq 1258166041:12581=
67065, ack 2905603457, win 54208, length 1024
	0x0000:  4500 0428 6f18 0000 3206 49ed 5fd0 acc8  E..(o...2.I._...
	0x0010:  4a5b 74d7 e3be 01bb 4afe 1719 ad2f fd81  J[t.....J..../..
	0x0020:  5010 d3c0 1224 0000 adf7 9f93 ecaf 8080  P....$..........
	0x0030:  5653 04d3 8442 386d 9558 2471 0563 1dda  VS...B8m.X$q.c..
	0x0040:  cbd8 f439 5ecc 3c7f 0ae3 e07b 1773 a130  ...9^.<....{.s.0
	0x0050:  1b06                                     ..

(The final octet of our customer's IP address is masked in the above output=
 because some automatic parsers become confused when multiple IP addresses =
are included. The value of that octet is "215".)

-John
President
NFOservers.com

(We're sending out so many of these notices, and seeing so many auto-respon=
ses, that we can't go through this email inbox effectively. If you have fol=
low-up questions, please contact us at noc@nfoe.net.)

