Received: from mail-pf0-f199.google.com (ip-10-0-0-91.eu-central-1.compute.internal [10.0.0.91])
	by 6d267b762acf (Haraka/2.8.16) with ESMTP id 9D8125A1-3661-4349-B5CF-C0D674063CBF.1
	envelope-from <abuse+bncBCP3VNNO4APRBLP2ZTKAKGQEGUBINWY@digitalocean.com>;
	Sun, 25 Feb 2018 22:48:14 +0000
Received: by mail-pf0-f199.google.com with SMTP id m22sf7385265pfg.15
        for <abuse@digitalocean.abusehq.net>; Sun, 25 Feb 2018 14:48:13 -0800 (PST)
DKIM-Signature: v=1; a=rsa-sha256; c=relaxed/relaxed;
        d=digitalocean.com; s=google;
        h=sender:from:date:content-transfer-encoding:to:mime-version:subject
         :message-id:x-original-sender:x-original-authentication-results
         :precedence:mailing-list:list-id:list-post:list-help:list-archive
         :list-unsubscribe;
        bh=Cyq8cRbe9vnnJyohhN+yjMg2aArWYgNpVrYRaJaAYPY=;
        b=LwRaEXSFtVrL1cwLQsDLDTo3FOi3ixSKzK6Lyf78fr84m4T9zh2EAhsL8+bzpWJ7pR
         93gFtG7w4v2XXDFj33+zChmhOVFF3eQlNTAwo2XMowwpyKpEyXi+kQNHdgWK//xQeXW3
         hHa1wURCRCuY3cTULaQN5BbMtPgtRWrKcxz3g=
X-Google-DKIM-Signature: v=1; a=rsa-sha256; c=relaxed/relaxed;
        d=1e100.net; s=20161025;
        h=sender:x-gm-message-state:from:date:content-transfer-encoding:to
         :mime-version:subject:message-id:x-original-sender
         :x-original-authentication-results:precedence:mailing-list:list-id
         :list-post:list-help:list-archive:list-unsubscribe;
        bh=Cyq8cRbe9vnnJyohhN+yjMg2aArWYgNpVrYRaJaAYPY=;
        b=Mfc7i4t6UOjoIvzV5vZf2+pnKug5sBdgR/UpvwGPqr4YvsrORRNY/J6jG32DLbJus+
         COhExFNE4so+H3NdxUUF5HJD6vxb2on4tUZqTwMMqufRc5VAXXKwK3LirP7xrpyPbWB0
         kLxTL9eX9yzfeNaQs9jTEK+YTqGu7R07QAgbUHQNfyZCDbEva1+RuAKZZxYNwWgh7oMd
         gKDca775LuK6m43Yzia31bWsTj5KZQ4pU9W3+jVgbXWg0s/dPR+P4d9axmI9Jw36eARD
         4BpehHgwhA0aKn3bE3p/H6oRqZT0N06tNVFGOkmO4xct8PyBDDqlcaJ1gZJujondvd/+
         NG1Q==
Sender: abuse@digitalocean.com
X-Gm-Message-State: APf1xPByxLWjXicVgkbjIbAjhaexsov1KRbrfwcL7EUUjfUn15JrFd0Q
	AWyEHmNFC2K1LXBPE+sHYk76AA==
X-Google-Smtp-Source: AH8x224EqS/IlmoeNwU8rUBA4w2z5jBArSUxl73+TZqekdbl6Y7WzDa9OTUx70u4aY2sVibFsK9KOg==
X-Received: by 10.99.47.194 with SMTP id v185mr1832812pgv.134.1519598893402;
        Sun, 25 Feb 2018 14:48:13 -0800 (PST)
X-BeenThere: abuse@digitalocean.com
Received: by 2002:a17:902:68cb:: with SMTP id x11-v6ls2287173plm.5.gmail; Sun,
 25 Feb 2018 14:48:13 -0800 (PST)
X-Received: by 2002:a17:902:69cf:: with SMTP id m15-v6mr8799745pln.104.1519598893024;
        Sun, 25 Feb 2018 14:48:13 -0800 (PST)
ARC-Seal: i=1; a=rsa-sha256; t=1519598893; cv=none;
        d=google.com; s=arc-20160816;
        b=otO8eoXZbAweG/NLDJLDZEEZpFdyyac3E1UQ7O7AK62haXH5YmAcRot92ZIYLWvHBR
         cRMo0z0VN2kFyf/WmOTPDoz3zmD5cwO92sRINxEfCRJyJsGMwRc+A7jESxBNUPQg7PyO
         /pVc1dYIkw1vgGNURsZM5VQd9giQ01kR/AGlLojD0Cf6TekbtaY9K+mdrLaoGC7VzNIH
         dR14qf6KAlTkqPce1guT1nwMXdLW6djfA4j46KP3C/B7V5i2dCRya/Wx+wLOqp76jW3T
         xuod9eOuDOsU9DJaQueYREMVx+PEmsapL9tQMdaScbLbJ5MLXQM3LOk5qzPGiomdc4nT
         PifA==
ARC-Message-Signature: i=1; a=rsa-sha256; c=relaxed/relaxed; d=google.com; s=arc-20160816;
        h=message-id:subject:mime-version:to:content-transfer-encoding:date
         :from:arc-authentication-results;
        bh=Cyq8cRbe9vnnJyohhN+yjMg2aArWYgNpVrYRaJaAYPY=;
        b=j63lJq+M0D2pEvZcH7djZz9Kvh8FE0wR7hxxVPwXXbqVJ0nQy0044F4NNFrS7w2wSe
         epqa47Zj5ZAn2r1qzRQj0oAv/xGfgAbtEL4GSj4RU0zUvsLpY++8kO8In3lc+lK275k6
         dKdlIYkaazgXM65ny/KwVyPbBfK3L7F/xq7yG3KikoZCPYBRu8cAGumimdIZfYSnH1RP
         +3+PeHM7lzCYPcO5X/tD7sJzgTRkGTjN5hTBS9dWD9kap/NWSobRpmoqXUqrFhAk8I96
         hXN9EU5PCTp2C5mfHO1nrexnbZ5aNY4JvnuevA5e3Kowdul+0yoAncqtrJExMkxkvr4z
         UOJQ==
ARC-Authentication-Results: i=1; mx.google.com;
       spf=pass (google.com: domain of ddos-response@nfoservers.com designates 208.146.45.251 as permitted sender) smtp.mailfrom=ddos-response@nfoservers.com
Received: from mail.nuclearfallout.net (mail.nuclearfallout.net. [208.146.45.251])
        by mx.google.com with ESMTPS id 62-v6si5696797ply.15.2018.02.25.14.48.12
        for <abuse@digitalocean.com>
        (version=TLS1_2 cipher=ECDHE-RSA-AES128-GCM-SHA256 bits=128/128);
        Sun, 25 Feb 2018 14:48:12 -0800 (PST)
Received-SPF: pass (google.com: domain of ddos-response@nfoservers.com designates 208.146.45.251 as permitted sender) client-ip=208.146.45.251;
Received: from www.nfoservers.com (www.nfoservers.com [208.146.44.1])
	(using TLSv1.2 with cipher ECDHE-RSA-AES256-GCM-SHA384 (256/256 bits))
	(No client certificate requested)
	by mail.nuclearfallout.net (Postfix) with ESMTPS id 71E6C7AE821DB
	for <abuse@digitalocean.com>; Sun, 25 Feb 2018 14:47:55 -0800 (PST)
Received: from www (localhost [127.0.0.1])
	by www.nfoservers.com (Postfix) with SMTP id 4C3FA413A6C
	for <abuse@digitalocean.com>; Sun, 25 Feb 2018 14:47:55 -0800 (PST)
From: NFOservers.com DDoS notifier <ddos-response@nfoservers.com>
Content-Type: text/plain; charset="iso-8859-1"
Date: Sun, 25 Feb 2018 14:47:55 -0800
Content-Transfer-Encoding: quoted-printable
To: abuse@digitalocean.com
Mime-Version: 1.0
Subject: Exploitable memcached server used for an attack: 128.199.128.222
Message-Id: <20180225224755.4C3FA413A6C@www.nfoservers.com>
X-Original-Sender: ddos-response@nfoservers.com
X-Original-Authentication-Results: mx.google.com;       spf=pass (google.com:
 domain of ddos-response@nfoservers.com designates 208.146.45.251 as permitted
 sender) smtp.mailfrom=ddos-response@nfoservers.com
Precedence: list
Mailing-list: list abuse@digitalocean.com; contact abuse+owners@digitalocean.com
List-ID: <abuse.digitalocean.com>
X-Google-Group-Id: 331087551970
List-Post: <https://groups.google.com/a/digitalocean.com/group/abuse/post>, <mailto:abuse@digitalocean.com>
List-Help: <https://support.google.com/a/digitalocean.com/bin/topic.py?topic=25838>,
 <mailto:abuse+help@digitalocean.com>
List-Archive: <https://groups.google.com/a/digitalocean.com/group/abuse/>
List-Unsubscribe: <mailto:googlegroups-manage+331087551970+unsubscribe@googlegroups.com>,
 <https://groups.google.com/a/digitalocean.com/group/abuse/subscribe>

A public-facing device on your network, running on IP address 128.199.128.2=
22, appears to operate an unsecured memcached instance responding on port 1=
1211 that participated in a large-scale attack against a customer of ours, =
generating UDP responses to spoofed requests that claimed to be from the at=
tack target.

Please consider reconfiguring this server in one or more of these ways:

1. Adding a firewall rule to block all access to this host's UDP port 11211=
 at your network edge.
2. Adding firewall rules to allow connections to this service (on UDP port =
11211) from authorized endpoints but block connections from all other hosts.
3. Adjusting the memcached instance to only listen on the local interface (=
localhost).

Example responses from the host during this attack are given below.
Date/timestamps (at the very left) are UTC.

2018-02-25 18:19:27.030369 IP (tos 0x0, ttl 52, id 0, offset 0, flags [DF],=
 proto UDP (17), length 1428)
    128.199.128.222.11211 > 208.146.44.x.61595: UDP, length 1400
	0x0000:  4500 0594 0000 4000 3411 4320 80c7 80de  E.....@.4.C.....
	0x0010:  d092 2c01 2bcb f09b 0580 c783 0001 0152  ..,.+..........R
	0x0020:  021c 0000 dee4 86f7 0329 2293 5183 a394  .........)".Q...
	0x0030:  affe 7853 d684 da88 e667 cb9b 3056 2a63  ..xS.....g..0V*c
	0x0040:  7774 fd9d 50be b0e8 db79 ec42 5f09 625b  wt..P....y.B_.b[
	0x0050:  69a5                                     i.
2018-02-25 18:19:27.087161 IP (tos 0x0, ttl 52, id 0, offset 0, flags [DF],=
 proto UDP (17), length 1428)
    128.199.128.222.11211 > 208.146.44.x.45782: UDP, length 1400
	0x0000:  4500 0594 0000 4000 3411 4320 80c7 80de  E.....@.4.C.....
	0x0010:  d092 2c01 2bcb b2d6 0580 7f36 0001 004b  ..,.+......6...K
	0x0020:  021c 0000 ff1f fc7e 68e5 c83a 5a46 4fee  .......~h..:ZFO.
	0x0030:  32a8 0425 697b b53b 26c5 30cb 3fb3 6457  2..%i{.;&.0.?.dW
	0x0040:  f3ab 644f e542 2f46 7e8f 8d5a b8ed 9eaf  ..dO.B/F~..Z....
	0x0050:  4f53                                     OS
2018-02-25 18:19:27.333022 IP (tos 0x0, ttl 52, id 0, offset 0, flags [DF],=
 proto UDP (17), length 1428)
    128.199.128.222.11211 > 208.146.44.x.61595: UDP, length 1400
	0x0000:  4500 0594 0000 4000 3411 4320 80c7 80de  E.....@.4.C.....
	0x0010:  d092 2c01 2bcb f09b 0580 abac 0001 00f0  ..,.+...........
	0x0020:  021c 0000 c4c6 f51c 1015 f486 165e e1e5  .............^..
	0x0030:  bce1 e1c0 a37a 8c84 d785 8a1c 18f8 83cf  .....z..........
	0x0040:  b9d3 57cb 436d 1b13 16a1 96db aaef ef09  ..W.Cm..........
	0x0050:  d837                                     .7
2018-02-25 18:19:27.350914 IP (tos 0x0, ttl 52, id 0, offset 0, flags [DF],=
 proto UDP (17), length 1428)
    128.199.128.222.11211 > 208.146.44.x.57351: UDP, length 1400
	0x0000:  4500 0594 0000 4000 3411 4320 80c7 80de  E.....@.4.C.....
	0x0010:  d092 2c01 2bcb e007 0580 4a97 0001 00b5  ..,.+.....J.....
	0x0020:  021c 0000 9963 439c a987 29ad 49d7 c0bb  .....cC...).I...
	0x0030:  d5cf c9a9 4b22 4749 d175 526a 0082 9006  ....K"GI.uRj....
	0x0040:  009a b5ba bfcd fb7e 69bb 879f adf8 dbf0  .......~i.......
	0x0050:  d32e                                     ..
2018-02-25 18:19:27.351066 IP (tos 0x0, ttl 52, id 0, offset 0, flags [DF],=
 proto UDP (17), length 1428)
    128.199.128.222.11211 > 208.146.44.x.43269: UDP, length 1400
	0x0000:  4500 0594 0000 4000 3411 4320 80c7 80de  E.....@.4.C.....
	0x0010:  d092 2c01 2bcb a905 0580 e083 0001 00f7  ..,.+...........
	0x0020:  021c 0000 034a 1bee ce75 0df9 d833 1c06  .....J...u...3..
	0x0030:  9bf6 0b5d 788b 9851 6d4d 9bb7 abb4 f3cb  ...]x..QmM......
	0x0040:  7de2 8cde 2432 3f66 f38c 9c6c e0dc 8d57  }...$2?f...l...W
	0x0050:  baa2                                     ..

(The final octet of our customer's IP address is masked in the above output=
 because some automatic parsers become confused when multiple IP addresses =
are included. The value of that octet is "1".)

-John
President
Nuclearfallout, Enterprises, Inc. (NFOservers.com)

(We're sending out so many of these notices, and seeing so many auto-respon=
ses, that we can't go through this email inbox effectively. If you have fol=
low-up questions, please contact us at noc@nfoe.net.)=

