Received: from mx.windstream.net (mx.windstream.net [69.168.106.33])
	by 27ae0e316043 (Haraka/2.8.20) with ESMTP id 4EC600C8-9C56-4440-8623-5DAA88C8B813.1
	envelope-from <ddos-response@nfoservers.com>;
	Tue, 18 Sep 2018 03:59:21 +0000
Return-Path: <ddos-response@nfoservers.com>
X-Forwarded-For: abuse@windstream.net abuse-prod@mcldemail.net, abuse@windstream.abusehq.net
X-Forwarded-To: abuse-prod@mcldemail.net, abuse@windstream.abusehq.net
X_CMAE_Category: , ,
X-CNFS-Analysis: v=2.2 cv=L5RfeKb8 c=1 sm=1 tr=0 a=ZikHRM3MI+sFy5Tm4iW/Qw==:117 a=eIhxMilvRf8A:10 a=8nJEP1OIZ-IA:10 a=JBFolyDoGHsA:10 a=Hffy2ttzAAAA:8 a=SJvMnXOjAAAA:8 a=8_zQh0jkUOPhsjMqRfMA:9 a=eVsG-RRmW08yG-5i:21 a=d7kH8FjB69f_CB6A:21 a=wPNLvfGTeEIA:10 a=bW8NlmvHORIA:10 a=WwHJs3vkRUUY8lQ1WAJs:22 a=hDZ3JhHebz7EvlRg8ePK:22 wl=env:5
X-CM-Score: 0
X-Scanned-by: Cloudmark Authority Engine
X-Received-HELO: from [192.223.25.228] (helo=mail.nuclearfallout.net)
Received: from [192.223.25.228] ([192.223.25.228:55033] helo=mail.nuclearfallout.net)
	by mx.windstream.net (envelope-from <ddos-response@nfoservers.com>)
	(ecelerity 3.6.25.56547 r(Core:3.6.25.0)) with ESMTP
	id 7E/B0-20807-81870AB5; Mon, 17 Sep 2018 23:59:20 -0400
Received: from www.nfoservers.com (www.nfoservers.com [192.223.25.1])
	(using TLSv1.2 with cipher ECDHE-RSA-AES256-GCM-SHA384 (256/256 bits))
	(No client certificate requested)
	by mail.nuclearfallout.net (Postfix) with ESMTPS id 4B1B289EF3289
	for <abuse@windstream.net>; Mon, 17 Sep 2018 20:59:20 -0700 (PDT)
Received: from www (localhost [127.0.0.1])
	by www.nfoservers.com (Postfix) with ESMTP id 08781413A95
	for <abuse@windstream.net>; Mon, 17 Sep 2018 20:59:20 -0700 (PDT)
Content-Type: text/plain; charset="iso-8859-1"
Message-ID: <55504861537243160@nfoservers.com>
Subject: Open SNMP service used for an attack: 40.139.71.90
To: abuse@windstream.net
Date: Mon, 17 Sep 2018 20:59:20 -0700
Mime-Version: 1.0
Content-Transfer-Encoding: quoted-printable
From: NFOservers.com DDoS notifier <ddos-response@nfoservers.com>

You appear to be running an open SNMP server at IP address 40.139.71.90 tha=
t participated in an attack against a customer of ours, generating large UD=
P responses to spoofed queries, with those responses becoming fragmented be=
cause of their size.

Please consider reconfiguring your SNMP-speaking device in one or more of t=
hese ways:

- Block queries made by unauthorized addresses. This can be done with an AC=
L or other firewall rule.
- Use a different query string than "public" and which cannot be easily gue=
ssed by a 3rd party.
- Disable SNMP entirely.

If you are an ISP, please also look at your network configuration and make =
sure that you do not allow spoofed traffic (that pretends to be from extern=
al IP addresses) to leave the network. Hosts that allow spoofed traffic mak=
e possible this type of attack.

Example SNMP responses sent to us by your device during the attack are give=
n below.=20
Date/timestamps (far left) are UTC.

2018-09-17 08:06:26.079591 IP (tos 0x0, ttl 248, id 48256, offset 0, flags =
[+], proto UDP (17), length 1500) 40.139.71.90.161 > 162.248.88.x.62864: UD=
P, length 1476
	0x0000:  4500 05dc bc80 2000 f811 7530 288b 475a  E.........u0(.GZ
	0x0010:  a2f8 5882 00a1 f590 05cc b9e5 3082 05c0  ..X.........0...
	0x0020:  0201 0104 0670 7562 6c69 63a2 8205 b102  .....public.....
	0x0030:  0406 2907 3102 0100 0201 0030 8205 a130  ..).1......0...0
	0x0040:  8201 0406 082b 0601 0201 0101 0004 81f7  .....+..........
	0x0050:  4369                                     Ci
2018-09-17 08:06:26.503483 IP (tos 0x0, ttl 248, id 48300, offset 0, flags =
[+], proto UDP (17), length 1500) 40.139.71.90.161 > 162.248.88.x.62864: UD=
P, length 1476
	0x0000:  4500 05dc bcac 2000 f811 7504 288b 475a  E.........u.(.GZ
	0x0010:  a2f8 5882 00a1 f590 05cc b9bb 3082 05c0  ..X.........0...
	0x0020:  0201 0104 0670 7562 6c69 63a2 8205 b102  .....public.....
	0x0030:  0406 2907 3102 0100 0201 0030 8205 a130  ..).1......0...0
	0x0040:  8201 0406 082b 0601 0201 0101 0004 81f7  .....+..........
	0x0050:  4369                                     Ci

(The final octet of our customer's IP address is masked in the above output=
 because some automatic parsers become confused when multiple IP addresses =
are included. The value of that octet is "130".)

-John
President
NFOservers.com

(We're sending out so many of these notices, and seeing so many auto-respon=
ses, that we can't go through this email inbox effectively. If you have fol=
low-up questions, please contact us at noc@nfoe.net.)=

