Received: from mx.windstream.net (mx.windstream.net [69.168.106.33])
	by fe2dba61eb49 (Haraka/2.8.26) with ESMTP id A1DB7FE5-0AEF-42CD-BD2D-0BE43843FA5C.1
	envelope-from <ddos-response@nfoservers.com>;
	Mon, 14 Jun 2021 01:19:28 +0000
Return-Path: <ddos-response@nfoservers.com>
X-Forwarded-For: abuse@windstream.net abuse@windstream.abusehq.net
X-Forwarded-To: abuse@windstream.abusehq.net
X-Received-HELO: from [192.223.25.228] (helo=mail.nuclearfallout.net)
Authentication-Results: mx07.aqua.bos.sync.lan smtp.mail=ddos-response@nfoservers.com; spf=pass
Received-SPF: pass (mx07.aqua.bos.sync.lan: domain nfoservers.com designates 192.223.25.228 as permitted sender)
Received: from [192.223.25.228] ([192.223.25.228:49243] helo=mail.nuclearfallout.net)
	by mx.windstream.net (envelope-from <ddos-response@nfoservers.com>)
	(ecelerity 3.6.25.56547 r(Core:3.6.25.0)) with ESMTPS (cipher=DHE-RSA-AES256-GCM-SHA384) 
	id F6/0B-01283-0AEA6C06; Sun, 13 Jun 2021 21:19:28 -0400
Received: from www.nfoservers.com (www.nfoservers.com [192.223.25.172])
	(using TLSv1.2 with cipher ECDHE-RSA-AES256-GCM-SHA384 (256/256 bits))
	(No client certificate requested)
	by mail.nuclearfallout.net (Postfix) with ESMTPS id 6A3921B8DD4D
	for <abuse@windstream.net>; Sun, 13 Jun 2021 18:19:23 -0700 (PDT)
Received: from www (localhost [127.0.0.1])
	by www.nfoservers.com (Postfix) with ESMTP id 1A2DC4141EB
	for <abuse@windstream.net>; Sun, 13 Jun 2021 18:19:23 -0700 (PDT)
From: NFOservers.com DDoS notifier <ddos-response@nfoservers.com>
Content-Transfer-Encoding: quoted-printable
Content-Type: text/plain; charset="iso-8859-1"
To: abuse@windstream.net
Mime-Version: 1.0
Message-ID: <62197271623633563@nfoservers.com>
Subject: Open recursive resolver used for an attack: 184.80.244.163
Date: Sun, 13 Jun 2021 18:19:23 -0700
X-Vade-Verditct: clean
X-Vade-Analysis: gggruggvucftvghtrhhoucdtuddrgeduledrfedvfedgudegjecutefuodetggdotefrodftvfcurfhrohhfihhlvgemucfujgfpteevqfftpdghkffpfffuvfftgfetofenuceurghilhhouhhtmecufedtudenucgfrhhlucfvnfffucdlqdeimdenucfjughrpefhgfgtvfggkffuffesthhqredttddtudenucfhrhhomheppffhqfhsvghrvhgvrhhsrdgtohhmucffffhoufcunhhothhifhhivghruceougguohhsqdhrvghsphhonhhsvgesnhhfohhsvghrvhgvrhhsrdgtohhmqeenucggtffrrghtthgvrhhnpefhueetledvveefueejheevkeduffevhffgtdeltdfhudetueekieehteekfedvgeenucffohhmrghinhepuhhsqdgtvghrthdrghhovhdpnhgvohhiphdrtghomhdrshhlnecukfhppeduledvrddvvdefrddvhedrvddvkedpudelvddrvddvfedrvdehrddujedvnecuvehluhhsthgvrhfuihiivgeptdenucfrrghrrghmpehinhgvthepudelvddrvddvfedrvdehrddvvdekpdhhvghlohepmhgrihhlrdhnuhgtlhgvrghrfhgrlhhlohhuthdrnhgvthdpmhgrihhlfhhrohhmpeguughoshdqrhgvshhpohhnshgvsehnfhhoshgvrhhvvghrshdrtghomhdprhgtphhtthhopegrsghushgvseifihhnughsthhrvggrmhdrnhgvthdphhhoshhtpehmgidrrghquhgrrdgsohhsrdhshihntgdrlhgrnhdpshhpfhepphgrshhspdgukhhimhep
X-Vade-Client: WINDSTREAM
Original-Authentication-Results: mx07.aqua.bos.sync.lan smtp.mail=ddos-response@nfoservers.com; spf=pass

You appear to be running an open recursive resolver at IP address 184.80.24=
4.163 that participated in an attack against a customer of ours, generating=
 large UDP responses to spoofed queries, with those responses becoming frag=
mented because of their size.

Please consider reconfiguring your resolver in one or more of these ways:

- To only serve your customers and not respond to outside IP addresses (in =
BIND, this is done by defining a limited set of hosts in "allow-query"; wit=
h a Windows DNS server, you would need to use firewall rules to block exter=
nal access to UDP port 53)
- To only serve domains that it is authoritative for (in BIND, this is done=
 by defining a limited set of hosts in "allow-query" for the server overall=
 but setting "allow-query" to "any" for each zone)
- To rate-limit responses to individual source IP addresses (such as by usi=
ng DNS Response Rate Limiting or iptables rules)

More information on this type of attack and what each party can do to mitig=
ate it can be found here: http://www.us-cert.gov/ncas/alerts/TA13-088A

If you are an ISP, please also look at your network configuration and make =
sure that you do not allow spoofed traffic (that pretends to be from extern=
al IP addresses) to leave the network. Hosts that allow spoofed traffic mak=
e possible this type of attack.

Example DNS responses from your resolver during this attack are given below=
.=20
Date/timestamps (far left) are UTC.

2021-06-14 01:08:35.627210 IP (tos 0x48, ttl 244, id 20608, offset 0, flags=
 [+], proto UDP (17), length 1500) 184.80.244.163.53 > 104.153.108.x.11632:=
 17767 10/0/1 sl. NS ns1.neoip.com., sl.[|domain]
	0x0000:  4548 05dc 5080 2000 f411 cea7 b850 f4a3  EH..P........P..
	0x0010:  6899 6c13 0035 2d70 0d2c 792f 4567 8180  h.l..5-p.,y/Eg..
	0x0020:  0001 000a 0000 0001 0273 6c00 00ff 0001  .........sl.....
	0x0030:  c00c 0002 0001 0002 45e8 000f 036e 7331  ........E....ns1
	0x0040:  056e 656f 6970 0363 6f6d 00c0 0c00 0200  .neoip.com......
	0x0050:  0100 0245 e800                           ...E..
2021-06-14 01:08:35.985920 IP (tos 0x48, ttl 244, id 20768, offset 0, flags=
 [+], proto UDP (17), length 1500) 184.80.244.163.53 > 104.153.108.x.7064: =
17767 10/0/1 sl. NS ns1.neoip.com., sl.[|domain]
	0x0000:  4548 05dc 5120 2000 f411 ce07 b850 f4a3  EH..Q........P..
	0x0010:  6899 6c13 0035 1b98 0d2c 8b07 4567 8180  h.l..5...,..Eg..
	0x0020:  0001 000a 0000 0001 0273 6c00 00ff 0001  .........sl.....
	0x0030:  c00c 0002 0001 0002 45e8 000f 036e 7331  ........E....ns1
	0x0040:  056e 656f 6970 0363 6f6d 00c0 0c00 0200  .neoip.com......
	0x0050:  0100 0245 e800                           ...E..
2021-06-14 01:08:36.588926 IP (tos 0x48, ttl 244, id 20980, offset 0, flags=
 [+], proto UDP (17), length 1500) 184.80.244.163.53 > 104.153.108.x.48532:=
 17767 10/0/1 sl. NS ns1.neoip.com., sl.[|domain]
	0x0000:  4548 05dc 51f4 2000 f411 cd33 b850 f4a3  EH..Q......3.P..
	0x0010:  6899 6c13 0035 bd94 0d2c f20b 4567 8180  h.l..5...,..Eg..
	0x0020:  0001 000a 0000 0001 0273 6c00 00ff 0001  .........sl.....
	0x0030:  c00c 0002 0001 0002 45e7 000f 036e 7331  ........E....ns1
	0x0040:  056e 656f 6970 0363 6f6d 00c0 0c00 0200  .neoip.com......
	0x0050:  0100 0245 e700                           ...E..

(The final octet of our customer's IP address is masked in the above output=
 because some automatic parsers become confused when multiple IP addresses =
are included. The value of that octet is "19".)

-John
President
NFOservers.com

(We're sending out so many of these notices, and seeing so many auto-respon=
ses, that we can't go through this email inbox effectively. If you have fol=
low-up questions, please contact us at noc@nfoe.net.)=

